{
  "contractName": "JoinedUser",
  "abi": [
    {
      "constant": false,
      "inputs": [
        {
          "name": "_name",
          "type": "string"
        },
        {
          "name": "_surname",
          "type": "string"
        },
        {
          "name": "_userName",
          "type": "string"
        }
      ],
      "name": "join",
      "outputs": [
        {
          "name": "",
          "type": "bool"
        }
      ],
      "payable": false,
      "stateMutability": "nonpayable",
      "type": "function"
    },
    {
      "constant": true,
      "inputs": [
        {
          "name": "_userName",
          "type": "string"
        }
      ],
      "name": "joinedUser",
      "outputs": [
        {
          "name": "",
          "type": "bool"
        }
      ],
      "payable": false,
      "stateMutability": "view",
      "type": "function"
    }
  ],
  "bytecode": "0x608060405234801561001057600080fd5b50610527806100206000396000f30060806040526004361061004c576000357c0100000000000000000000000000000000000000000000000000000000900463ffffffff1680635c6fc63b14610051578063f67d064e146100d2575b600080fd5b34801561005d57600080fd5b506100b8600480360381019080803590602001908201803590602001908080601f01602080910402602001604051908101604052809392919081815260200183838082843782019150505050505091929192905050506101df565b604051808215151515815260200191505060405180910390f35b3480156100de57600080fd5b506101c5600480360381019080803590602001908201803590602001908080601f0160208091040260200160405190810160405280939291908181526020018383808284378201915050505050509192919290803590602001908201803590602001908080601f0160208091040260200160405190810160405280939291908181526020018383808284378201915050505050509192919290803590602001908201803590602001908080601f0160208091040260200160405190810160405280939291908181526020018383808284378201915050505050509192919290505050610261565b604051808215151515815260200191505060405180910390f35b60006001826040518082805190602001908083835b60208310151561021957805182526020820191506020810190506020830392506101f4565b6001836020036101000a038019825116818451168082178552505050505050905001915050908152602001604051809103902060009054906101000a900460ff169050919050565b60008061026d836101df565b151515610308576040517f08c379a00000000000000000000000000000000000000000000000000000000081526004018080602001828103825260238152602001807f5573756172696f207265676973747261646f20656e206c6120426c6f636b636881526020017f61696e000000000000000000000000000000000000000000000000000000000081525060400191505060405180910390fd5b6000836040518082805190602001908083835b602083101515610340578051825260208201915060208101905060208303925061031b565b6001836020036101000a038019825116818451168082178552505050505050905001915050908152602001604051809103902090508481600001908051906020019061038d929190610456565b50838160010190805190602001906103a6929190610456565b50828160020190805190602001906103bf929190610456565b50600180846040518082805190602001908083835b6020831015156103f957805182526020820191506020810190506020830392506103d4565b6001836020036101000a038019825116818451168082178552505050505050905001915050908152602001604051809103902060006101000a81548160ff02191690831515021790555061044c836101df565b9150509392505050565b828054600181600116156101000203166002900490600052602060002090601f016020900481019282601f1061049757805160ff19168380011785556104c5565b828001600101855582156104c5579182015b828111156104c45782518255916020019190600101906104a9565b5b5090506104d291906104d6565b5090565b6104f891905b808211156104f45760008160009055506001016104dc565b5090565b905600a165627a7a723058201fad4854aaea85f33e6fdd5f5838eaddb3349157671ce7a0c2d76224e0dc2efe0029",
  "source": "/********************************************************/\n/* File: JoinedUser.sol                                 */\n/* Author: Carlos Escario Bajo                          */\n/* Proyecto: TFG UNIR                                   */\n/* Date: 01/09/2019                                     */\n/* Version: 1.0                                         */\n/* Smartcontract que almacena al usuario la primera      */\n/* vez que entra en la aplicacion                        */\n/********************************************************/\npragma solidity ^0.4.24;\n\ncontract JoinedUser {\n    struct Userinfo {\n        string name;\n        string surName;\n        string userName;\n    }\n\n    mapping (string => Userinfo) private users;\n    mapping (string => bool) private joinedusers;\n\n    function join(string _name, string _surname, string _userName) public returns (bool) {\n        require(!joinedUser(_userName), \"Usuario registrado en la Blockchain\");\n        Userinfo storage joined = users[_userName];\n        joined.name = _name;\n        joined.surName = _surname;\n        joined.userName = _userName;\n        joinedusers[_userName] = true;\n        return joinedUser(_userName);\n    }\n\n    function joinedUser(string _userName) public view returns (bool) {\n        return joinedusers[_userName];\n    }\n}",
  "sourcePath": "/home/cescari/grive/UNIR/GRADO INGENIERIA INFORMATICA/TFG/Proyecto/PetChain_TFG/PetChain_TFG/truffle/contracts/JoinedUser.sol",
  "compiler": {
    "name": "solc",
    "version": "0.4.25+commit.59dbf8f1.Emscripten.clang"
  },
  "schemaVersion": "2.0.2",
  "updatedAt": "2019-09-04T14:43:12.027Z"
}