{
  "contractName": "JoinedUser",
  "abi": [
    {
      "constant": false,
      "inputs": [
        {
          "name": "_name",
          "type": "string"
        },
        {
          "name": "_surname",
          "type": "string"
        },
        {
          "name": "_userName",
          "type": "string"
        }
      ],
      "name": "join",
      "outputs": [],
      "payable": false,
      "stateMutability": "nonpayable",
      "type": "function"
    },
    {
      "constant": true,
      "inputs": [
        {
          "name": "_userName",
          "type": "string"
        }
      ],
      "name": "joinedUser",
      "outputs": [
        {
          "name": "",
          "type": "bool"
        }
      ],
      "payable": false,
      "stateMutability": "view",
      "type": "function"
    }
  ],
  "bytecode": "0x608060405234801561001057600080fd5b50610501806100206000396000f30060806040526004361061004c576000357c0100000000000000000000000000000000000000000000000000000000900463ffffffff1680635c6fc63b14610051578063f67d064e146100d2575b600080fd5b34801561005d57600080fd5b506100b8600480360381019080803590602001908201803590602001908080601f01602080910402602001604051908101604052809392919081815260200183838082843782019150505050505091929192905050506101c7565b604051808215151515815260200191505060405180910390f35b3480156100de57600080fd5b506101c5600480360381019080803590602001908201803590602001908080601f0160208091040260200160405190810160405280939291908181526020018383808284378201915050505050509192919290803590602001908201803590602001908080601f0160208091040260200160405190810160405280939291908181526020018383808284378201915050505050509192919290803590602001908201803590602001908080601f0160208091040260200160405190810160405280939291908181526020018383808284378201915050505050509192919290505050610249565b005b60006001826040518082805190602001908083835b60208310151561020157805182526020820191506020810190506020830392506101dc565b6001836020036101000a038019825116818451168082178552505050505050905001915050908152602001604051809103902060009054906101000a900460ff169050919050565b6000610254826101c7565b1515156102ef576040517f08c379a00000000000000000000000000000000000000000000000000000000081526004018080602001828103825260268152602001807f5573756172696f206e6f207265676973747261646f20656e206c6120426c6f6381526020017f6b636861696e000000000000000000000000000000000000000000000000000081525060400191505060405180910390fd5b6000826040518082805190602001908083835b6020831015156103275780518252602082019150602081019050602083039250610302565b6001836020036101000a0380198251168184511680821785525050505050509050019150509081526020016040518091039020905083816000019080519060200190610374929190610430565b508281600101908051906020019061038d929190610430565b50818160020190805190602001906103a6929190610430565b50600180836040518082805190602001908083835b6020831015156103e057805182526020820191506020810190506020830392506103bb565b6001836020036101000a038019825116818451168082178552505050505050905001915050908152602001604051809103902060006101000a81548160ff02191690831515021790555050505050565b828054600181600116156101000203166002900490600052602060002090601f016020900481019282601f1061047157805160ff191683800117855561049f565b8280016001018555821561049f579182015b8281111561049e578251825591602001919060010190610483565b5b5090506104ac91906104b0565b5090565b6104d291905b808211156104ce5760008160009055506001016104b6565b5090565b905600a165627a7a7230582058fe44a7578a8a96c3667f416ba1d253a53a8ff67d9bec9298ec0cf8ee6c4b9f0029",
  "source": "/********************************************************/\n/* File: JoinedUser.sol                                 */\n/* Author: Carlos Escario Bajo                          */\n/* Proyecto: TFG UNIR                                   */\n/* Date: 01/09/2019                                     */\n/* Version: 1.0                                         */\n/*Smartcontract que almacena al usuario la primera      */\n/* vez que entra a dar de alta                          */\n/********************************************************/\n\npragma solidity ^0.4.24;\n\ncontract JoinedUser {\n    struct Userinfo {\n        string name;\n        string surName;\n        string userName;\n    }\n\n    mapping (string => Userinfo) private users;\n    mapping (string => bool) private joinedusers;\n\n    function join(string _name, string _surname, string _userName) public {\n        require(!joinedUser(_userName), \"Usuario no registrado en la Blockchain\");\n        Userinfo storage joined = users[_userName];\n        joined.name = _name;\n        joined.surName = _surname;\n        joined.userName = _userName;\n        joinedusers[_userName] = true;\n    }\n\n    function joinedUser(string _userName) public view returns (bool) {\n        return joinedusers[_userName];\n    }\n}",
  "sourcePath": "/home/cescari/grive/UNIR/GRADO INGENIERIA INFORMATICA/TFG/Proyecto/PetChain_TFG/PetChain_TFG/truffle/contracts/JoinedUser.sol",
  "compiler": {
    "name": "solc",
    "version": "0.4.25+commit.59dbf8f1.Emscripten.clang"
  },
  "schemaVersion": "2.0.2",
  "updatedAt": "2019-09-02T19:10:54.923Z"
}