{
  "contractName": "PetChain",
  "abi": [
    {
      "constant": false,
      "inputs": [
        {
          "name": "_pet_id",
          "type": "string"
        },
        {
          "name": "_data_hash",
          "type": "string"
        }
      ],
      "name": "setPet",
      "outputs": [],
      "payable": false,
      "stateMutability": "nonpayable",
      "type": "function"
    },
    {
      "constant": true,
      "inputs": [
        {
          "name": "_pet_id",
          "type": "string"
        }
      ],
      "name": "getPet",
      "outputs": [
        {
          "name": "",
          "type": "string"
        },
        {
          "name": "",
          "type": "string"
        }
      ],
      "payable": false,
      "stateMutability": "view",
      "type": "function"
    }
  ],
  "bytecode": "0x608060405234801561001057600080fd5b506105bf806100206000396000f30060806040526004361061004c576000357c0100000000000000000000000000000000000000000000000000000000900463ffffffff168063ace8f15814610051578063d0d73a1614610100575b600080fd5b34801561005d57600080fd5b506100fe600480360381019080803590602001908201803590602001908080601f0160208091040260200160405190810160405280939291908181526020018383808284378201915050505050509192919290803590602001908201803590602001908080601f016020809104026020016040519081016040528093929190818152602001838380828437820191505050505050919291929050505061024e565b005b34801561010c57600080fd5b50610167600480360381019080803590602001908201803590602001908080601f01602080910402602001604051908101604052809392919081815260200183838082843782019150505050505091929192905050506102f3565b604051808060200180602001838103835285818151815260200191508051906020019080838360005b838110156101ab578082015181840152602081019050610190565b50505050905090810190601f1680156101d85780820380516001836020036101000a031916815260200191505b50838103825284818151815260200191508051906020019080838360005b838110156102115780820151818401526020810190506101f6565b50505050905090810190601f16801561023e5780820380516001836020036101000a031916815260200191505b5094505050505060405180910390f35b600080836040518082805190602001908083835b6020831015156102875780518252602082019150602081019050602083039250610262565b6001836020036101000a03801982511681845116808217855250505050505090500191505090815260200160405180910390209050828160000190805190602001906102d49291906104d4565b50818160010190805190602001906102ed9291906104d4565b50505050565b6060806102fe610554565b6000846040518082805190602001908083835b6020831015156103365780518252602082019150602081019050602083039250610311565b6001836020036101000a0380198251168184511680821785525050505050509050019150509081526020016040518091039020604080519081016040529081600082018054600181600116156101000203166002900480601f01602080910402602001604051908101604052809291908181526020018280546001816001161561010002031660029004801561040d5780601f106103e25761010080835404028352916020019161040d565b820191906000526020600020905b8154815290600101906020018083116103f057829003601f168201915b50505050508152602001600182018054600181600116156101000203166002900480601f0160208091040260200160405190810160405280929190818152602001828054600181600116156101000203166002900480156104af5780601f10610484576101008083540402835291602001916104af565b820191906000526020600020905b81548152906001019060200180831161049257829003601f168201915b5050505050815250509050806000015181602001518191508090509250925050915091565b828054600181600116156101000203166002900490600052602060002090601f016020900481019282601f1061051557805160ff1916838001178555610543565b82800160010185558215610543579182015b82811115610542578251825591602001919060010190610527565b5b509050610550919061056e565b5090565b604080519081016040528060608152602001606081525090565b61059091905b8082111561058c576000816000905550600101610574565b5090565b905600a165627a7a72305820127f8e0d47c9c3711d35c20cc27b7a75bf8b98f4c2b21f7cfa555ef092fd741c0029",
  "source": "/********************************************************/\n/* File: PetChain.sol                                   */\n/* Author: Carlos Escario Bajo                          */\n/* Proyecto: TFG UNIR                                   */\n/* Date: 01/08/2019                                     */\n/* Version: 1.0                                         */\n/*Smartcontract de almacenaje de historial de mascotas  */\n/********************************************************/\n\npragma solidity ^0.4.24;\n\ncontract PetChain {\n    \n    struct Petinfo {\n        string pet_id;\n        string data_hash;\n    }\n    \n    mapping(string => Petinfo) private pet;\n    \n    function setPet(string _pet_id, string _data_hash) public {\n        Petinfo storage petInfo = pet[ _pet_id];\n        petInfo.pet_id = _pet_id;\n        petInfo.data_hash =_data_hash;\n    }\n    \n    function getPet(string _pet_id) public view returns (string, string) {\n        Petinfo memory petInfo = pet[_pet_id];\n        \n        return (petInfo.pet_id, petInfo.data_hash);\n    }\n    \n}",
  "sourcePath": "/home/cescari/grive/UNIR/GRADO INGENIERIA INFORMATICA/TFG/Proyecto/PetChain_TFG/PetChain_TFG/truffle/contracts/PetChain.sol",
  "compiler": {
    "name": "solc",
    "version": "0.4.25+commit.59dbf8f1.Emscripten.clang"
  },
  "schemaVersion": "2.0.2",
  "updatedAt": "2019-08-31T19:17:29.233Z"
}