{
  "contractName": "PetChain",
  "abi": [
    {
      "constant": false,
      "inputs": [
        {
          "name": "_pet_id",
          "type": "string"
        },
        {
          "name": "_data_hash",
          "type": "string"
        }
      ],
      "name": "setPet",
      "outputs": [
        {
          "name": "",
          "type": "bool"
        }
      ],
      "payable": false,
      "stateMutability": "nonpayable",
      "type": "function"
    },
    {
      "constant": true,
      "inputs": [
        {
          "name": "_pet_id",
          "type": "string"
        }
      ],
      "name": "getPet",
      "outputs": [
        {
          "name": "",
          "type": "string"
        },
        {
          "name": "",
          "type": "string"
        }
      ],
      "payable": false,
      "stateMutability": "view",
      "type": "function"
    }
  ],
  "bytecode": "0x608060405234801561001057600080fd5b506105df806100206000396000f30060806040526004361061004c576000357c0100000000000000000000000000000000000000000000000000000000900463ffffffff168063ace8f15814610051578063d0d73a1614610118575b600080fd5b34801561005d57600080fd5b506100fe600480360381019080803590602001908201803590602001908080601f0160208091040260200160405190810160405280939291908181526020018383808284378201915050505050509192919290803590602001908201803590602001908080601f0160208091040260200160405190810160405280939291908181526020018383808284378201915050505050509192919290505050610266565b604051808215151515815260200191505060405180910390f35b34801561012457600080fd5b5061017f600480360381019080803590602001908201803590602001908080601f0160208091040260200160405190810160405280939291908181526020018383808284378201915050505050509192919290505050610313565b604051808060200180602001838103835285818151815260200191508051906020019080838360005b838110156101c35780820151818401526020810190506101a8565b50505050905090810190601f1680156101f05780820380516001836020036101000a031916815260200191505b50838103825284818151815260200191508051906020019080838360005b8381101561022957808201518184015260208101905061020e565b50505050905090810190601f1680156102565780820380516001836020036101000a031916815260200191505b5094505050505060405180910390f35b6000806000846040518082805190602001908083835b6020831015156102a1578051825260208201915060208101905060208303925061027c565b6001836020036101000a03801982511681845116808217855250505050505090500191505090815260200160405180910390209050838160000190805190602001906102ee9291906104f4565b50828160010190805190602001906103079291906104f4565b50600191505092915050565b60608061031e610574565b6000846040518082805190602001908083835b6020831015156103565780518252602082019150602081019050602083039250610331565b6001836020036101000a0380198251168184511680821785525050505050509050019150509081526020016040518091039020604080519081016040529081600082018054600181600116156101000203166002900480601f01602080910402602001604051908101604052809291908181526020018280546001816001161561010002031660029004801561042d5780601f106104025761010080835404028352916020019161042d565b820191906000526020600020905b81548152906001019060200180831161041057829003601f168201915b50505050508152602001600182018054600181600116156101000203166002900480601f0160208091040260200160405190810160405280929190818152602001828054600181600116156101000203166002900480156104cf5780601f106104a4576101008083540402835291602001916104cf565b820191906000526020600020905b8154815290600101906020018083116104b257829003601f168201915b5050505050815250509050806000015181602001518191508090509250925050915091565b828054600181600116156101000203166002900490600052602060002090601f016020900481019282601f1061053557805160ff1916838001178555610563565b82800160010185558215610563579182015b82811115610562578251825591602001919060010190610547565b5b509050610570919061058e565b5090565b604080519081016040528060608152602001606081525090565b6105b091905b808211156105ac576000816000905550600101610594565b5090565b905600a165627a7a72305820b2693713feac40f12e793053ae3c07e5a4c0629afeb8ee53d6e721431cd4cb690029",
  "source": "/********************************************************/\n/* File: PetChain.sol                                   */\n/* Author: Carlos Escario Bajo                          */\n/* Proyecto: TFG UNIR                                   */\n/* Date: 01/08/2019                                     */\n/* Version: 1.0                                         */\n/*Smartcontract de almacenaje de historial de mascotas  */\n/********************************************************/\n\npragma solidity ^0.4.24;\n\ncontract PetChain {\n    \n    struct Petinfo {\n        string pet_id;\n        string data_hash;\n    }\n    \n    mapping(string => Petinfo) private pet;\n    \n    function setPet(string _pet_id, string _data_hash) public returns (bool){\n        Petinfo storage petInfo = pet[_pet_id];\n        petInfo.pet_id = _pet_id;\n        petInfo.data_hash = _data_hash;\n        return true;\n    }\n    \n    function getPet(string _pet_id) public view returns (string, string) {\n        Petinfo memory petInfo = pet[_pet_id];\n        \n        return (petInfo.pet_id, petInfo.data_hash);\n    }\n    \n}",
  "sourcePath": "/home/cescari/grive/UNIR/GRADO INGENIERIA INFORMATICA/TFG/Proyecto/PetChain_TFG/PetChain_TFG/truffle/contracts/PetChain.sol",
  "compiler": {
    "name": "solc",
    "version": "0.4.25+commit.59dbf8f1.Emscripten.clang"
  },
  "schemaVersion": "2.0.2",
  "updatedAt": "2019-09-02T19:10:55.535Z"
}