{
  "contractName": "registerTX",
  "abi": [
    {
      "constant": false,
      "inputs": [
        {
          "name": "_toAddr",
          "type": "address"
        },
        {
          "name": "_txHASH",
          "type": "string"
        }
      ],
      "name": "setTX",
      "outputs": [],
      "payable": false,
      "stateMutability": "nonpayable",
      "type": "function"
    },
    {
      "constant": true,
      "inputs": [
        {
          "name": "_toAddr",
          "type": "address"
        }
      ],
      "name": "getTX",
      "outputs": [
        {
          "name": "",
          "type": "string"
        }
      ],
      "payable": false,
      "stateMutability": "view",
      "type": "function"
    }
  ],
  "bytecode": "0x608060405234801561001057600080fd5b506103e0806100206000396000f30060806040526004361061004c576000357c0100000000000000000000000000000000000000000000000000000000900463ffffffff168063156f091514610051578063f259701b146100da575b600080fd5b34801561005d57600080fd5b506100d8600480360381019080803573ffffffffffffffffffffffffffffffffffffffff169060200190929190803590602001908201803590602001908080601f0160208091040260200160405190810160405280939291908181526020018383808284378201915050505050509192919290505050610196565b005b3480156100e657600080fd5b5061011b600480360381019080803573ffffffffffffffffffffffffffffffffffffffff1690602001909291905050506101f6565b6040518080602001828103825283818151815260200191508051906020019080838360005b8381101561015b578082015181840152602081019050610140565b50505050905090810190601f1680156101885780820380516001836020036101000a031916815260200191505b509250505060405180910390f35b60008060008473ffffffffffffffffffffffffffffffffffffffff1673ffffffffffffffffffffffffffffffffffffffff1681526020019081526020016000209050818160000190805190602001906101f09291906102fb565b50505050565b606061020061037b565b6000808473ffffffffffffffffffffffffffffffffffffffff1673ffffffffffffffffffffffffffffffffffffffff16815260200190815260200160002060206040519081016040529081600082018054600181600116156101000203166002900480601f0160208091040260200160405190810160405280929190818152602001828054600181600116156101000203166002900480156102e35780601f106102b8576101008083540402835291602001916102e3565b820191906000526020600020905b8154815290600101906020018083116102c657829003601f168201915b50505050508152505090508060000151915050919050565b828054600181600116156101000203166002900490600052602060002090601f016020900481019282601f1061033c57805160ff191683800117855561036a565b8280016001018555821561036a579182015b8281111561036957825182559160200191906001019061034e565b5b509050610377919061038f565b5090565b602060405190810160405280606081525090565b6103b191905b808211156103ad576000816000905550600101610395565b5090565b905600a165627a7a723058207529d3eecc46aec834a6fb0d1af74ff9100b98d4a300cbdabf4f3bd05a1fee830029",
  "source": "/********************************************************/\n/* File: registerTX.sol                                 */\n/* Author: Carlos Escario Bajo                          */\n/* Proyecto: TFG UNIR                                   */\n/* Date: 20/08/2019                                     */\n/* Version: 1.0                                         */\n/* Smartcontract de registro para el historial de TX    */\n/********************************************************/\npragma solidity ^0.4.24;\n\ncontract registerTX {\n    struct TX {\n        //address fromAddr;\n        string txHASH;\n    }\n    mapping ( address => TX ) private txReg;\n    function setTX (address _toAddr, string _txHASH) public {\n        TX storage toReg = txReg[_toAddr];\n       // toReg.fromAddr = _fromAddr;\n        toReg.txHASH = _txHASH;\n    }\n    function getTX(address _toAddr) public view returns (string) {\n        TX memory toReg = txReg[_toAddr];\n        return (toReg.txHASH);\n    }\n}",
  "sourcePath": "/home/cescari/grive/UNIR/GRADO INGENIERIA INFORMATICA/TFG/Proyecto/PetChain_TFG/PetChain_TFG/truffle/contracts/regiserTX.sol",
  "compiler": {
    "name": "solc",
    "version": "0.4.25+commit.59dbf8f1.Emscripten.clang"
  },
  "schemaVersion": "2.0.2",
  "updatedAt": "2019-09-09T07:49:50.566Z"
}