{
  "contractName": "registerTX",
  "abi": [
    {
      "constant": false,
      "inputs": [
        {
          "name": "_toAddr",
          "type": "address"
        },
        {
          "name": "_fromAddr",
          "type": "address"
        },
        {
          "name": "_txHASH",
          "type": "string"
        }
      ],
      "name": "setTX",
      "outputs": [],
      "payable": false,
      "stateMutability": "nonpayable",
      "type": "function"
    },
    {
      "constant": true,
      "inputs": [
        {
          "name": "_toAddr",
          "type": "address"
        }
      ],
      "name": "getTX",
      "outputs": [
        {
          "name": "",
          "type": "string"
        }
      ],
      "payable": false,
      "stateMutability": "view",
      "type": "function"
    }
  ],
  "bytecode": "0x608060405234801561001057600080fd5b506104b5806100206000396000f30060806040526004361061004c576000357c0100000000000000000000000000000000000000000000000000000000900463ffffffff168063f259701b14610051578063fbfd22a61461010d575b600080fd5b34801561005d57600080fd5b50610092600480360381019080803573ffffffffffffffffffffffffffffffffffffffff1690602001909291905050506101b6565b6040518080602001828103825283818151815260200191508051906020019080838360005b838110156100d25780820151818401526020810190506100b7565b50505050905090810190601f1680156100ff5780820380516001836020036101000a031916815260200191505b509250505060405180910390f35b34801561011957600080fd5b506101b4600480360381019080803573ffffffffffffffffffffffffffffffffffffffff169060200190929190803573ffffffffffffffffffffffffffffffffffffffff169060200190929190803590602001908201803590602001908080601f0160208091040260200160405190810160405280939291908181526020018383808284378201915050505050509192919290505050610310565b005b60606101c06103b4565b6000808473ffffffffffffffffffffffffffffffffffffffff1673ffffffffffffffffffffffffffffffffffffffff1681526020019081526020016000206040805190810160405290816000820160009054906101000a900473ffffffffffffffffffffffffffffffffffffffff1673ffffffffffffffffffffffffffffffffffffffff1673ffffffffffffffffffffffffffffffffffffffff168152602001600182018054600181600116156101000203166002900480601f0160208091040260200160405190810160405280929190818152602001828054600181600116156101000203166002900480156102f85780601f106102cd576101008083540402835291602001916102f8565b820191906000526020600020905b8154815290600101906020018083116102db57829003601f168201915b50505050508152505090508060200151915050919050565b60008060008573ffffffffffffffffffffffffffffffffffffffff1673ffffffffffffffffffffffffffffffffffffffff1681526020019081526020016000209050828160000160006101000a81548173ffffffffffffffffffffffffffffffffffffffff021916908373ffffffffffffffffffffffffffffffffffffffff160217905550818160010190805190602001906103ad9291906103e4565b5050505050565b6040805190810160405280600073ffffffffffffffffffffffffffffffffffffffff168152602001606081525090565b828054600181600116156101000203166002900490600052602060002090601f016020900481019282601f1061042557805160ff1916838001178555610453565b82800160010185558215610453579182015b82811115610452578251825591602001919060010190610437565b5b5090506104609190610464565b5090565b61048691905b8082111561048257600081600090555060010161046a565b5090565b905600a165627a7a723058208e7da7372b8cd11f7f733bebd041e1d43e8ca593c625c3c6431f1a494e29436d0029",
  "source": "/********************************************************/\n/* File: registerTX.sol                                 */\n/* Author: Carlos Escario Bajo                          */\n/* Proyecto: TFG UNIR                                   */\n/* Date: 20/08/2019                                     */\n/* Version: 1.0                                         */\n/* Smartcontract de registro para el historial de TX    */\n/********************************************************/\npragma solidity ^0.4.24;\n\ncontract registerTX {\n    struct TX {\n        address fromAddr;\n        string txHASH;\n    }\n    mapping ( address => TX ) private txReg;\n    function setTX (address _toAddr, address _fromAddr, string _txHASH) public {\n        TX storage toReg = txReg[_toAddr];\n        toReg.fromAddr = _fromAddr;\n        toReg.txHASH = _txHASH;\n    }\n    function getTX(address _toAddr) public view returns (string) {\n        TX memory toReg = txReg[_toAddr];\n        return (toReg.txHASH);\n    }\n}",
  "sourcePath": "/home/cescari/grive/UNIR/GRADO INGENIERIA INFORMATICA/TFG/Proyecto/PetChain_TFG/PetChain_TFG/truffle/contracts/regiserTX.sol",
  "compiler": {
    "name": "solc",
    "version": "0.4.25+commit.59dbf8f1.Emscripten.clang"
  },
  "schemaVersion": "2.0.2",
  "updatedAt": "2019-09-05T15:15:00.187Z"
}