{
    "contractName": "JoinedUser",
    "abi": [
        {
            "constant": false,
            "inputs": [
                {
                    "name": "_name",
                    "type": "string"
                },
                {
                    "name": "_surname",
                    "type": "string"
                },
                {
                    "name": "_userName",
                    "type": "string"
                }
            ],
            "name": "join",
            "outputs": [],
            "payable": false,
            "stateMutability": "nonpayable",
            "type": "function"
        }
    ],
    "bytecode": "608060405234801561001057600080fd5b5061028a806100206000396000f3006080604052600436106100405763ffffffff7c0100000000000000000000000000000000000000000000000000000000600035041663f67d064e8114610045575b600080fd5b34801561005157600080fd5b506040805160206004803580820135601f810184900484028501840190955284845261011a94369492936024939284019190819084018382808284375050604080516020601f89358b018035918201839004830284018301909452808352979a99988101979196509182019450925082915084018382808284375050604080516020601f89358b018035918201839004830284018301909452808352979a99988101979196509182019450925082915084018382808284375094975061011c9650505050505050565b005b600080826040518082805190602001908083835b6020831061014f5780518252601f199092019160209182019101610130565b51815160209384036101000a6000190180199092169116179052920194855250604051938490038101909320875190945061019093859350880191506101c3565b5082516101a690600183019060208601906101c3565b5081516101bc90600283019060208501906101c3565b5050505050565b828054600181600116156101000203166002900490600052602060002090601f016020900481019282601f1061020457805160ff1916838001178555610231565b82800160010185558215610231579182015b82811115610231578251825591602001919060010190610216565b5061023d929150610241565b5090565b61025b91905b8082111561023d5760008155600101610247565b905600a165627a7a7230582088f4e6341ccb4ed13dfcbf1818bdc862ebb639aeaeb74ba2f691e42b304686a40029",
    "sourcePath": "/home/cescari/grive/UNIR/GRADO INGENIERIA INFORMATICA/TFG/Proyecto/PetChain_TFG/PetChain_TFG/truffle/contracts/JoinedUser.sol",
    "compiler": {
        "name": "solc",
        "version": "0.4.24+commit.e67f0147"
    },
    "functionHashes": {
        "join(string,string,string)": "f67d064e"
    },
    "gasEstimates": {
        "creation": {
            "codeDepositCost": "130000",
            "executionCost": "177",
            "totalCost": "130177"
        },
        "external": {
            "join(string,string,string)": "infinite"
        }
    }
}